{
  "contractName": "Marketplace",
  "abi": [
    {
      "inputs": [],
      "stateMutability": "nonpayable",
      "type": "constructor"
    },
    {
      "anonymous": false,
      "inputs": [
        {
          "indexed": false,
          "internalType": "uint256",
          "name": "id",
          "type": "uint256"
        },
        {
          "indexed": true,
          "internalType": "address",
          "name": "NftAddress",
          "type": "address"
        },
        {
          "indexed": true,
          "internalType": "address",
          "name": "seller",
          "type": "address"
        },
        {
          "indexed": false,
          "internalType": "uint256",
          "name": "tokenId",
          "type": "uint256"
        },
        {
          "indexed": false,
          "internalType": "uint256",
          "name": "price",
          "type": "uint256"
        },
        {
          "indexed": false,
          "internalType": "uint256",
          "name": "creatorFee",
          "type": "uint256"
        }
      ],
      "name": "Add",
      "type": "event"
    },
    {
      "anonymous": false,
      "inputs": [
        {
          "indexed": false,
          "internalType": "uint256",
          "name": "id",
          "type": "uint256"
        },
        {
          "indexed": true,
          "internalType": "address",
          "name": "NftAddress",
          "type": "address"
        },
        {
          "indexed": true,
          "internalType": "address",
          "name": "seller",
          "type": "address"
        },
        {
          "indexed": true,
          "internalType": "address",
          "name": "buyer",
          "type": "address"
        },
        {
          "indexed": false,
          "internalType": "uint256",
          "name": "tokenId",
          "type": "uint256"
        },
        {
          "indexed": false,
          "internalType": "uint256",
          "name": "price",
          "type": "uint256"
        }
      ],
      "name": "Buy",
      "type": "event"
    },
    {
      "anonymous": false,
      "inputs": [
        {
          "indexed": true,
          "internalType": "address",
          "name": "previousOwner",
          "type": "address"
        },
        {
          "indexed": true,
          "internalType": "address",
          "name": "newOwner",
          "type": "address"
        }
      ],
      "name": "OwnershipTransferred",
      "type": "event"
    },
    {
      "inputs": [
        {
          "internalType": "uint256",
          "name": "",
          "type": "uint256"
        }
      ],
      "name": "TokenOnSale",
      "outputs": [
        {
          "internalType": "uint256",
          "name": "id",
          "type": "uint256"
        },
        {
          "internalType": "address payable",
          "name": "seller",
          "type": "address"
        },
        {
          "internalType": "address",
          "name": "NFTaddress",
          "type": "address"
        },
        {
          "internalType": "uint256",
          "name": "tokenId",
          "type": "uint256"
        },
        {
          "internalType": "uint256",
          "name": "price",
          "type": "uint256"
        },
        {
          "internalType": "bool",
          "name": "sold",
          "type": "bool"
        },
        {
          "internalType": "uint256",
          "name": "creatorFee",
          "type": "uint256"
        }
      ],
      "stateMutability": "view",
      "type": "function",
      "constant": true
    },
    {
      "inputs": [],
      "name": "marketAddress",
      "outputs": [
        {
          "internalType": "address payable",
          "name": "",
          "type": "address"
        }
      ],
      "stateMutability": "view",
      "type": "function",
      "constant": true
    },
    {
      "inputs": [],
      "name": "owner",
      "outputs": [
        {
          "internalType": "address",
          "name": "",
          "type": "address"
        }
      ],
      "stateMutability": "view",
      "type": "function",
      "constant": true
    },
    {
      "inputs": [],
      "name": "renounceOwnership",
      "outputs": [],
      "stateMutability": "nonpayable",
      "type": "function"
    },
    {
      "inputs": [
        {
          "internalType": "address",
          "name": "newOwner",
          "type": "address"
        }
      ],
      "name": "transferOwnership",
      "outputs": [],
      "stateMutability": "nonpayable",
      "type": "function"
    },
    {
      "inputs": [
        {
          "internalType": "address",
          "name": "_NFTaddress",
          "type": "address"
        },
        {
          "internalType": "uint256",
          "name": "_tokenId",
          "type": "uint256"
        },
        {
          "internalType": "uint256",
          "name": "_price",
          "type": "uint256"
        },
        {
          "internalType": "uint256",
          "name": "_creatorFee",
          "type": "uint256"
        }
      ],
      "name": "addNftToMarket",
      "outputs": [],
      "stateMutability": "nonpayable",
      "type": "function"
    },
    {
      "inputs": [],
      "name": "getAllNftsOnSale",
      "outputs": [
        {
          "components": [
            {
              "internalType": "uint256",
              "name": "id",
              "type": "uint256"
            },
            {
              "internalType": "address payable",
              "name": "seller",
              "type": "address"
            },
            {
              "internalType": "address",
              "name": "NFTaddress",
              "type": "address"
            },
            {
              "internalType": "uint256",
              "name": "tokenId",
              "type": "uint256"
            },
            {
              "internalType": "uint256",
              "name": "price",
              "type": "uint256"
            },
            {
              "internalType": "bool",
              "name": "sold",
              "type": "bool"
            },
            {
              "internalType": "uint256",
              "name": "creatorFee",
              "type": "uint256"
            }
          ],
          "internalType": "struct Marketplace.TokenInfo[]",
          "name": "",
          "type": "tuple[]"
        }
      ],
      "stateMutability": "view",
      "type": "function",
      "constant": true
    },
    {
      "inputs": [
        {
          "internalType": "uint256[]",
          "name": "_ids",
          "type": "uint256[]"
        }
      ],
      "name": "buyNfts",
      "outputs": [],
      "stateMutability": "payable",
      "type": "function",
      "payable": true
    },
    {
      "inputs": [
        {
          "internalType": "uint256",
          "name": "_id",
          "type": "uint256"
        }
      ],
      "name": "buyNft",
      "outputs": [],
      "stateMutability": "payable",
      "type": "function",
      "payable": true
    },
    {
      "inputs": [
        {
          "internalType": "uint256",
          "name": "_id",
          "type": "uint256"
        },
        {
          "internalType": "uint256",
          "name": "_price",
          "type": "uint256"
        }
      ],
      "name": "reAddNftToMarket",
      "outputs": [],
      "stateMutability": "nonpayable",
      "type": "function"
    }
  ],
  "bytecode": "0x608060405234801561001057600080fd5b5061002d61002261007360201b60201c565b61007b60201b60201c565b33600260006101000a81548173ffffffffffffffffffffffffffffffffffffffff021916908373ffffffffffffffffffffffffffffffffffffffff16021790555061013f565b600033905090565b60008060009054906101000a900473ffffffffffffffffffffffffffffffffffffffff169050816000806101000a81548173ffffffffffffffffffffffffffffffffffffffff021916908373ffffffffffffffffffffffffffffffffffffffff1602179055508173ffffffffffffffffffffffffffffffffffffffff168173ffffffffffffffffffffffffffffffffffffffff167f8be0079c531659141344cd1fd0a4f28419497f9722a3daafe3b4186f6b6457e060405160405180910390a35050565b61213c806200014f6000396000f3fe6080604052600436106100915760003560e01c80639562364111610059578063956236411461013b578063b2b088f614610166578063b55e62aa146101a9578063eb5af731146101d2578063f2fde38b146101fb57610091565b8063243adbdd1461009657806336b536be146100b25780635d596402146100dd578063715018a6146100f95780638da5cb5b14610110575b600080fd5b6100b060048036038101906100ab919061173a565b610224565b005b3480156100be57600080fd5b506100c7610824565b6040516100d49190611a8c565b60405180910390f35b6100f760048036038101906100f291906116f5565b610b8c565b005b34801561010557600080fd5b5061010e610c3d565b005b34801561011c57600080fd5b50610125610c51565b6040516101329190611a56565b60405180910390f35b34801561014757600080fd5b50610150610c7a565b60405161015d9190611a71565b60405180910390f35b34801561017257600080fd5b5061018d6004803603810190610188919061173a565b610ca0565b6040516101a09796959493929190611be9565b60405180910390f35b3480156101b557600080fd5b506101d060048036038101906101cb9190611692565b610d2f565b005b3480156101de57600080fd5b506101f960048036038101906101f49190611763565b6110fa565b005b34801561020757600080fd5b50610222600480360381019061021d9190611617565b61131c565b005b670de0b6b3a7640000600360008381526020019081526020016000206004015461024e9190611d4f565b341015610290576040517f08c379a000000000000000000000000000000000000000000000000000000000815260040161028790611b0e565b60405180910390fd5b6003600082815260200190815260200160002060050160009054906101000a900460ff16156102f4576040517f08c379a00000000000000000000000000000000000000000000000000000000081526004016102eb90611ace565b60405180910390fd5b6003600082815260200190815260200160002060010160009054906101000a900473ffffffffffffffffffffffffffffffffffffffff1673ffffffffffffffffffffffffffffffffffffffff163373ffffffffffffffffffffffffffffffffffffffff161415610399576040517f08c379a000000000000000000000000000000000000000000000000000000000815260040161039090611b8e565b60405180910390fd5b6000670de0b6b3a764000060036000848152602001908152602001600020600401546103c59190611d4f565b9050600060646001836103d89190611d4f565b6103e29190611d1e565b90506000808183856103f49190611da9565b6103fe9190611da9565b9050600260009054906101000a900473ffffffffffffffffffffffffffffffffffffffff1673ffffffffffffffffffffffffffffffffffffffff166108fc849081150290604051600060405180830381858888f19350505050158015610468573d6000803e3d6000fd5b5060006003600087815260200190815260200160002060020160009054906101000a900473ffffffffffffffffffffffffffffffffffffffff1673ffffffffffffffffffffffffffffffffffffffff16630ee2cb106040518163ffffffff1660e01b815260040160206040518083038186803b1580156104e757600080fd5b505afa1580156104fb573d6000803e3d6000fd5b505050506040513d601f19601f8201168201806040525081019061051f9190611669565b90508073ffffffffffffffffffffffffffffffffffffffff166003600088815260200190815260200160002060010160009054906101000a900473ffffffffffffffffffffffffffffffffffffffff1673ffffffffffffffffffffffffffffffffffffffff1614610603576103e86003600088815260200190815260200160002060060154866105af9190611d4f565b6105b99190611d1e565b92508073ffffffffffffffffffffffffffffffffffffffff166108fc849081150290604051600060405180830381858888f19350505050158015610601573d6000803e3d6000fd5b505b6003600087815260200190815260200160002060010160009054906101000a900473ffffffffffffffffffffffffffffffffffffffff1673ffffffffffffffffffffffffffffffffffffffff166108fc839081150290604051600060405180830381858888f1935050505015801561067f573d6000803e3d6000fd5b5060016003600088815260200190815260200160002060050160006101000a81548160ff021916908315150217905550336003600088815260200190815260200160002060010160006101000a81548173ffffffffffffffffffffffffffffffffffffffff021916908373ffffffffffffffffffffffffffffffffffffffff1602179055503373ffffffffffffffffffffffffffffffffffffffff166003600088815260200190815260200160002060010160009054906101000a900473ffffffffffffffffffffffffffffffffffffffff1673ffffffffffffffffffffffffffffffffffffffff166003600089815260200190815260200160002060020160009054906101000a900473ffffffffffffffffffffffffffffffffffffffff1673ffffffffffffffffffffffffffffffffffffffff167f75707d5d3d11632aafe99e9e60317891909f271b10026e79014651df900c32a089600360008c815260200190815260200160002060030154600360008d81526020019081526020016000206004015460405161081493929190611c58565b60405180910390a4505050505050565b606060008061083360016113a0565b67ffffffffffffffff811115610872577f4e487b7100000000000000000000000000000000000000000000000000000000600052604160045260246000fd5b6040519080825280602002602001820160405280156108ab57816020015b61089861150e565b8152602001906001900390816108905790505b5090506000600190505b6108bf60016113a0565b8111610a60576003600082815260200190815260200160002060050160009054906101000a900460ff16610a4d57600360008281526020019081526020016000206040518060e0016040529081600082015481526020016001820160009054906101000a900473ffffffffffffffffffffffffffffffffffffffff1673ffffffffffffffffffffffffffffffffffffffff1673ffffffffffffffffffffffffffffffffffffffff1681526020016002820160009054906101000a900473ffffffffffffffffffffffffffffffffffffffff1673ffffffffffffffffffffffffffffffffffffffff1673ffffffffffffffffffffffffffffffffffffffff16815260200160038201548152602001600482015481526020016005820160009054906101000a900460ff16151515158152602001600682015481525050828481518110610a33577f4e487b7100000000000000000000000000000000000000000000000000000000600052603260045260246000fd5b60200260200101819052508280610a4990611e37565b9350505b8080610a5890611e37565b9150506108b5565b5060008267ffffffffffffffff811115610aa3577f4e487b7100000000000000000000000000000000000000000000000000000000600052604160045260246000fd5b604051908082528060200260200182016040528015610adc57816020015b610ac961150e565b815260200190600190039081610ac15790505b50905060005b83811015610b8257828181518110610b23577f4e487b7100000000000000000000000000000000000000000000000000000000600052603260045260246000fd5b6020026020010151828281518110610b64577f4e487b7100000000000000000000000000000000000000000000000000000000600052603260045260246000fd5b60200260200101819052508080610b7a90611e37565b915050610ae2565b5080935050505090565b60003411610bcf576040517f08c379a0000000000000000000000000000000000000000000000000000000008152600401610bc690611b2e565b60405180910390fd5b60005b82829050811015610c3857610c25838383818110610c19577f4e487b7100000000000000000000000000000000000000000000000000000000600052603260045260246000fd5b90506020020135610224565b8080610c3090611e37565b915050610bd2565b505050565b610c456113ae565b610c4f600061142c565b565b60008060009054906101000a900473ffffffffffffffffffffffffffffffffffffffff16905090565b600260009054906101000a900473ffffffffffffffffffffffffffffffffffffffff1681565b60036020528060005260406000206000915090508060000154908060010160009054906101000a900473ffffffffffffffffffffffffffffffffffffffff16908060020160009054906101000a900473ffffffffffffffffffffffffffffffffffffffff16908060030154908060040154908060050160009054906101000a900460ff16908060060154905087565b3373ffffffffffffffffffffffffffffffffffffffff168473ffffffffffffffffffffffffffffffffffffffff16636352211e856040518263ffffffff1660e01b8152600401610d7f9190611bce565b60206040518083038186803b158015610d9757600080fd5b505afa158015610dab573d6000803e3d6000fd5b505050506040513d601f19601f82011682018060405250810190610dcf9190611640565b73ffffffffffffffffffffffffffffffffffffffff1614610e25576040517f08c379a0000000000000000000000000000000000000000000000000000000008152600401610e1c90611b6e565b60405180910390fd5b6000600190505b610e3660016113a0565b8111610f15578473ffffffffffffffffffffffffffffffffffffffff166003600083815260200190815260200160002060020160009054906101000a900473ffffffffffffffffffffffffffffffffffffffff1673ffffffffffffffffffffffffffffffffffffffff16148015610ec25750836003600083815260200190815260200160002060030154145b15610f02576040517f08c379a0000000000000000000000000000000000000000000000000000000008152600401610ef990611bae565b60405180910390fd5b8080610f0d90611e37565b915050610e2c565b50610f2060016114f0565b6040518060e00160405280610f3560016113a0565b81526020013373ffffffffffffffffffffffffffffffffffffffff1681526020018573ffffffffffffffffffffffffffffffffffffffff1681526020018481526020018381526020016000151581526020018281525060036000610f9960016113a0565b81526020019081526020016000206000820151816000015560208201518160010160006101000a81548173ffffffffffffffffffffffffffffffffffffffff021916908373ffffffffffffffffffffffffffffffffffffffff16021790555060408201518160020160006101000a81548173ffffffffffffffffffffffffffffffffffffffff021916908373ffffffffffffffffffffffffffffffffffffffff160217905550606082015181600301556080820151816004015560a08201518160050160006101000a81548160ff02191690831515021790555060c082015181600601559050503373ffffffffffffffffffffffffffffffffffffffff168473ffffffffffffffffffffffffffffffffffffffff167f170a83bf0c36e4cf56ebd3775c694275e73636c0a3dbd99a59d12b244781d8146110d960016113a0565b8686866040516110ec9493929190611c8f565b60405180910390a350505050565b6003600083815260200190815260200160002060050160009054906101000a900460ff1661115d576040517f08c379a000000000000000000000000000000000000000000000000000000000815260040161115490611aee565b60405180910390fd5b6003600083815260200190815260200160002060010160009054906101000a900473ffffffffffffffffffffffffffffffffffffffff1673ffffffffffffffffffffffffffffffffffffffff163373ffffffffffffffffffffffffffffffffffffffff1614611201576040517f08c379a00000000000000000000000000000000000000000000000000000000081526004016111f890611b6e565b60405180910390fd5b80600360008481526020019081526020016000206004018190555060006003600084815260200190815260200160002060050160006101000a81548160ff0219169083151502179055503373ffffffffffffffffffffffffffffffffffffffff166003600084815260200190815260200160002060020160009054906101000a900473ffffffffffffffffffffffffffffffffffffffff1673ffffffffffffffffffffffffffffffffffffffff167f170a83bf0c36e4cf56ebd3775c694275e73636c0a3dbd99a59d12b244781d8148460036000878152602001908152602001600020600301548560036000898152602001908152602001600020600601546040516113109493929190611c8f565b60405180910390a35050565b6113246113ae565b600073ffffffffffffffffffffffffffffffffffffffff168173ffffffffffffffffffffffffffffffffffffffff161415611394576040517f08c379a000000000000000000000000000000000000000000000000000000000815260040161138b90611aae565b60405180910390fd5b61139d8161142c565b50565b600081600001549050919050565b6113b6611506565b73ffffffffffffffffffffffffffffffffffffffff166113d4610c51565b73ffffffffffffffffffffffffffffffffffffffff161461142a576040517f08c379a000000000000000000000000000000000000000000000000000000000815260040161142190611b4e565b60405180910390fd5b565b60008060009054906101000a900473ffffffffffffffffffffffffffffffffffffffff169050816000806101000a81548173ffffffffffffffffffffffffffffffffffffffff021916908373ffffffffffffffffffffffffffffffffffffffff1602179055508173ffffffffffffffffffffffffffffffffffffffff168173ffffffffffffffffffffffffffffffffffffffff167f8be0079c531659141344cd1fd0a4f28419497f9722a3daafe3b4186f6b6457e060405160405180910390a35050565b6001816000016000828254019250508190555050565b600033905090565b6040518060e0016040528060008152602001600073ffffffffffffffffffffffffffffffffffffffff168152602001600073ffffffffffffffffffffffffffffffffffffffff1681526020016000815260200160008152602001600015158152602001600081525090565b600081359050611588816120c1565b92915050565b60008151905061159d816120c1565b92915050565b6000815190506115b2816120d8565b92915050565b60008083601f8401126115ca57600080fd5b8235905067ffffffffffffffff8111156115e357600080fd5b6020830191508360208202830111156115fb57600080fd5b9250929050565b600081359050611611816120ef565b92915050565b60006020828403121561162957600080fd5b600061163784828501611579565b91505092915050565b60006020828403121561165257600080fd5b60006116608482850161158e565b91505092915050565b60006020828403121561167b57600080fd5b6000611689848285016115a3565b91505092915050565b600080600080608085870312156116a857600080fd5b60006116b687828801611579565b94505060206116c787828801611602565b93505060406116d887828801611602565b92505060606116e987828801611602565b91505092959194509250565b6000806020838503121561170857600080fd5b600083013567ffffffffffffffff81111561172257600080fd5b61172e858286016115b8565b92509250509250929050565b60006020828403121561174c57600080fd5b600061175a84828501611602565b91505092915050565b6000806040838503121561177657600080fd5b600061178485828601611602565b925050602061179585828601611602565b9150509250929050565b60006117ab83836119aa565b60e08301905092915050565b6117c081611def565b82525050565b6117cf81611def565b82525050565b6117de81611ddd565b82525050565b6117ed81611ddd565b82525050565b60006117fe82611ce4565b6118088185611cfc565b935061181383611cd4565b8060005b8381101561184457815161182b888261179f565b975061183683611cef565b925050600181019050611817565b5085935050505092915050565b61185a81611e01565b82525050565b61186981611e01565b82525050565b600061187c602683611d0d565b915061188782611ede565b604082019050919050565b600061189f600f83611d0d565b91506118aa82611f2d565b602082019050919050565b60006118c2601483611d0d565b91506118cd82611f56565b602082019050919050565b60006118e5600e83611d0d565b91506118f082611f7f565b602082019050919050565b6000611908600b83611d0d565b915061191382611fa8565b602082019050919050565b600061192b602083611d0d565b915061193682611fd1565b602082019050919050565b600061194e602183611d0d565b915061195982611ffa565b604082019050919050565b6000611971601683611d0d565b915061197c82612049565b602082019050919050565b6000611994602383611d0d565b915061199f82612072565b604082019050919050565b60e0820160008201516119c06000850182611a38565b5060208201516119d360208501826117b7565b5060408201516119e660408501826117d5565b5060608201516119f96060850182611a38565b506080820151611a0c6080850182611a38565b5060a0820151611a1f60a0850182611851565b5060c0820151611a3260c0850182611a38565b50505050565b611a4181611e2d565b82525050565b611a5081611e2d565b82525050565b6000602082019050611a6b60008301846117e4565b92915050565b6000602082019050611a8660008301846117c6565b92915050565b60006020820190508181036000830152611aa681846117f3565b905092915050565b60006020820190508181036000830152611ac78161186f565b9050919050565b60006020820190508181036000830152611ae781611892565b9050919050565b60006020820190508181036000830152611b07816118b5565b9050919050565b60006020820190508181036000830152611b27816118d8565b9050919050565b60006020820190508181036000830152611b47816118fb565b9050919050565b60006020820190508181036000830152611b678161191e565b9050919050565b60006020820190508181036000830152611b8781611941565b9050919050565b60006020820190508181036000830152611ba781611964565b9050919050565b60006020820190508181036000830152611bc781611987565b9050919050565b6000602082019050611be36000830184611a47565b92915050565b600060e082019050611bfe600083018a611a47565b611c0b60208301896117c6565b611c1860408301886117e4565b611c256060830187611a47565b611c326080830186611a47565b611c3f60a0830185611860565b611c4c60c0830184611a47565b98975050505050505050565b6000606082019050611c6d6000830186611a47565b611c7a6020830185611a47565b611c876040830184611a47565b949350505050565b6000608082019050611ca46000830187611a47565b611cb16020830186611a47565b611cbe6040830185611a47565b611ccb6060830184611a47565b95945050505050565b6000819050602082019050919050565b600081519050919050565b6000602082019050919050565b600082825260208201905092915050565b600082825260208201905092915050565b6000611d2982611e2d565b9150611d3483611e2d565b925082611d4457611d43611eaf565b5b828204905092915050565b6000611d5a82611e2d565b9150611d6583611e2d565b9250817fffffffffffffffffffffffffffffffffffffffffffffffffffffffffffffffff0483118215151615611d9e57611d9d611e80565b5b828202905092915050565b6000611db482611e2d565b9150611dbf83611e2d565b925082821015611dd257611dd1611e80565b5b828203905092915050565b6000611de882611e0d565b9050919050565b6000611dfa82611e0d565b9050919050565b60008115159050919050565b600073ffffffffffffffffffffffffffffffffffffffff82169050919050565b6000819050919050565b6000611e4282611e2d565b91507fffffffffffffffffffffffffffffffffffffffffffffffffffffffffffffffff821415611e7557611e74611e80565b5b600182019050919050565b7f4e487b7100000000000000000000000000000000000000000000000000000000600052601160045260246000fd5b7f4e487b7100000000000000000000000000000000000000000000000000000000600052601260045260246000fd5b7f4f776e61626c653a206e6577206f776e657220697320746865207a65726f206160008201527f6464726573730000000000000000000000000000000000000000000000000000602082015250565b7f416c726561647920736f6c646f75740000000000000000000000000000000000600082015250565b7f54686973204e4654206973206e6f7420736f6c64000000000000000000000000600082015250565b7f4e6f7420656e6f75676820455448000000000000000000000000000000000000600082015250565b7f4e6f204554482073656e74000000000000000000000000000000000000000000600082015250565b7f4f776e61626c653a2063616c6c6572206973206e6f7420746865206f776e6572600082015250565b7f596f7520617265206e6f7420746865206f776e6572206f662074686973204e4660008201527f5400000000000000000000000000000000000000000000000000000000000000602082015250565b7f596f752063616e27742062757920796f7572204e465400000000000000000000600082015250565b7f54686973204e465420697320616c726561647920616464656420746f204d617260008201527f6b65740000000000000000000000000000000000000000000000000000000000602082015250565b6120ca81611ddd565b81146120d557600080fd5b50565b6120e181611def565b81146120ec57600080fd5b50565b6120f881611e2d565b811461210357600080fd5b5056fea26469706673582212202b5d15aed0d62b59c0d6957053b8a9aff38829cb69d51ab37df352302819649364736f6c63430008010033",
  "immutableReferences": {},
  "source": "// SPDX-License-Identifier: MIT\npragma solidity ^0.8.1;\n\nimport \"../node_modules/@openzeppelin/contracts/token/ERC721/ERC721.sol\";\nimport \"../node_modules/@openzeppelin/contracts/token/ERC721/IERC721.sol\";\nimport \"../node_modules/@openzeppelin/contracts/access/Ownable.sol\";\nimport \"../node_modules/@openzeppelin/contracts/utils/Counters.sol\";\nimport \"./LTToken.sol\";\n\n\ncontract Marketplace is Ownable {\n    using Counters for Counters.Counter;\n    Counters.Counter private _Ids;\n    address payable public marketAddress;\n\n    struct TokenInfo {\n        uint256 id;\n        address payable seller;\n        address NFTaddress;\n        uint256 tokenId;\n        uint256 price;\n        bool sold;\n        uint256 creatorFee;\n    }\n\n    mapping(uint256 => TokenInfo) public TokenOnSale;\n\n    event Add(uint256 id, address indexed NftAddress, address indexed seller, uint256 tokenId, uint256 price, uint256 creatorFee);\n    event Buy(uint256 id, address indexed NftAddress, address indexed seller, address indexed buyer, uint256 tokenId, uint256 price);\n\n    constructor() {\n        marketAddress = payable(msg.sender);\n    }\n\n    function addNftToMarket(address _NFTaddress, uint256 _tokenId, uint256 _price, uint256 _creatorFee) external {\n        require(IERC721(_NFTaddress).ownerOf(_tokenId) == msg.sender, \"You are not the owner of this NFT\");\n\n        \n        for (uint i = 1; i <= _Ids.current(); i++) {\n            require(!(TokenOnSale[i].NFTaddress == _NFTaddress && TokenOnSale[i].tokenId == _tokenId), \"This NFT is already added to Market\");\n        }\n        \n        _Ids.increment();\n        TokenOnSale[_Ids.current()] = TokenInfo(_Ids.current(), payable(msg.sender), _NFTaddress, _tokenId, _price, false, _creatorFee);\n        \n        emit Add(_Ids.current(), _NFTaddress, msg.sender, _tokenId, _price, _creatorFee);\n    }\n\n\n    function getAllNftsOnSale() external view returns (TokenInfo[] memory) {\n        uint count;\n        TokenInfo[] memory checkList = new TokenInfo[](_Ids.current());\n        for (uint i = 1; i <= _Ids.current(); i++) {\n            if (!TokenOnSale[i].sold) {\n                checkList[count] = TokenOnSale[i];\n                count++;\n            }\n        }\n        TokenInfo[] memory filteredCheckList = new TokenInfo[](count);\n        for (uint i = 0; i < count; i++) {\n            filteredCheckList[i] = checkList[i];\n        }\n        return filteredCheckList;\n    }\n\n    function buyNfts(uint256[] calldata _ids) external payable {\n        require(msg.value > 0, \"No ETH sent\");\n\n        for (uint256 i = 0; i < _ids.length; i++) {\n            buyNft(_ids[i]);\n        }\n    }\n\n    function buyNft(uint256 _id) public payable {\n        require(msg.value >= TokenOnSale[_id].price * (10 ** 18), \"Not enough ETH\");\n        require(!TokenOnSale[_id].sold, \"Already soldout\");\n        require(msg.sender != TokenOnSale[_id].seller, \"You can't buy your NFT\");\n\n        uint256 price = TokenOnSale[_id].price * (10 ** 18);\n        uint256 marketFee = price * 1 / 100; // 1%\n        uint256 creatorFee = 0;\n        uint256 sellerAmount = price - marketFee - creatorFee;\n\n        marketAddress.transfer(marketFee);\n        \n        address payable creator = MyNFT(TokenOnSale[_id].NFTaddress).getCreator();\n        if (TokenOnSale[_id].seller != creator) {\n            creatorFee = price * TokenOnSale[_id].creatorFee / 1000; // 0, 2.5, 5\n            creator.transfer(creatorFee);\n        }\n\n        payable(TokenOnSale[_id].seller).transfer(sellerAmount); // Transfer the funds to the seller's address\n        TokenOnSale[_id].sold = true;\n        TokenOnSale[_id].seller = payable(msg.sender);\n\n        emit Buy(_id, TokenOnSale[_id].NFTaddress, TokenOnSale[_id].seller, msg.sender, TokenOnSale[_id].tokenId, TokenOnSale[_id].price);\n    }\n\n\n    // function reApprove(uint256 _id) public {\n    //     require(msg.sender == TokenOnSale[_id].seller, \"You are not the owner of this NFT\");\n    //     // IERC721(TokenOnSale[_id].NFTaddress).approve(address(this), _id);\n    //     IERC721(TokenOnSale[_id].NFTaddress).setApprovalForAll(address(this), true);\n    // }\n\n    function reAddNftToMarket(uint256 _id, uint256 _price) external {\n        require(TokenOnSale[_id].sold, \"This NFT is not sold\");\n        require(msg.sender == TokenOnSale[_id].seller, \"You are not the owner of this NFT\");\n\n        TokenOnSale[_id].price = _price;\n        TokenOnSale[_id].sold = false;\n\n        emit Add(_id, TokenOnSale[_id].NFTaddress, msg.sender, TokenOnSale[_id].tokenId, _price, TokenOnSale[_id].creatorFee);\n    }\n}",
  "sourcePath": "/Users/kimjh/Documents/workspace/ZDB/NFTproject/nft/contracts/Marketplace.sol",
  "compiler": {
    "name": "solc",
    "version": "0.8.1+commit.df193b15.Emscripten.clang"
  },
  "schemaVersion": "3.4.14",
  "updatedAt": "2023-06-12T20:36:45.965Z",
  "networkType": "ethereum",
  "devdoc": {
    "kind": "dev",
    "methods": {
      "owner()": {
        "details": "Returns the address of the current owner."
      },
      "renounceOwnership()": {
        "details": "Leaves the contract without owner. It will not be possible to call `onlyOwner` functions. Can only be called by the current owner. NOTE: Renouncing ownership will leave the contract without an owner, thereby disabling any functionality that is only available to the owner."
      },
      "transferOwnership(address)": {
        "details": "Transfers ownership of the contract to a new account (`newOwner`). Can only be called by the current owner."
      }
    },
    "version": 1
  },
  "userdoc": {
    "kind": "user",
    "methods": {},
    "version": 1
  }
}