{
  "contractName": "MyNFT",
  "abi": [
    {
      "inputs": [
        {
          "internalType": "string",
          "name": "_name",
          "type": "string"
        },
        {
          "internalType": "string",
          "name": "_symbol",
          "type": "string"
        }
      ],
      "stateMutability": "nonpayable",
      "type": "constructor"
    },
    {
      "anonymous": false,
      "inputs": [
        {
          "indexed": true,
          "internalType": "address",
          "name": "owner",
          "type": "address"
        },
        {
          "indexed": true,
          "internalType": "address",
          "name": "approved",
          "type": "address"
        },
        {
          "indexed": true,
          "internalType": "uint256",
          "name": "tokenId",
          "type": "uint256"
        }
      ],
      "name": "Approval",
      "type": "event"
    },
    {
      "anonymous": false,
      "inputs": [
        {
          "indexed": true,
          "internalType": "address",
          "name": "owner",
          "type": "address"
        },
        {
          "indexed": true,
          "internalType": "address",
          "name": "operator",
          "type": "address"
        },
        {
          "indexed": false,
          "internalType": "bool",
          "name": "approved",
          "type": "bool"
        }
      ],
      "name": "ApprovalForAll",
      "type": "event"
    },
    {
      "anonymous": false,
      "inputs": [
        {
          "indexed": true,
          "internalType": "address",
          "name": "previousOwner",
          "type": "address"
        },
        {
          "indexed": true,
          "internalType": "address",
          "name": "newOwner",
          "type": "address"
        }
      ],
      "name": "OwnershipTransferred",
      "type": "event"
    },
    {
      "anonymous": false,
      "inputs": [
        {
          "indexed": true,
          "internalType": "address",
          "name": "from",
          "type": "address"
        },
        {
          "indexed": true,
          "internalType": "address",
          "name": "to",
          "type": "address"
        },
        {
          "indexed": true,
          "internalType": "uint256",
          "name": "tokenId",
          "type": "uint256"
        }
      ],
      "name": "Transfer",
      "type": "event"
    },
    {
      "inputs": [],
      "name": "MAX_TOKEN_COUNT",
      "outputs": [
        {
          "internalType": "uint256",
          "name": "",
          "type": "uint256"
        }
      ],
      "stateMutability": "view",
      "type": "function"
    },
    {
      "inputs": [
        {
          "internalType": "address",
          "name": "to",
          "type": "address"
        },
        {
          "internalType": "uint256",
          "name": "tokenId",
          "type": "uint256"
        }
      ],
      "name": "approve",
      "outputs": [],
      "stateMutability": "nonpayable",
      "type": "function"
    },
    {
      "inputs": [
        {
          "internalType": "address",
          "name": "owner",
          "type": "address"
        }
      ],
      "name": "balanceOf",
      "outputs": [
        {
          "internalType": "uint256",
          "name": "",
          "type": "uint256"
        }
      ],
      "stateMutability": "view",
      "type": "function"
    },
    {
      "inputs": [
        {
          "internalType": "uint256",
          "name": "tokenId",
          "type": "uint256"
        }
      ],
      "name": "getApproved",
      "outputs": [
        {
          "internalType": "address",
          "name": "",
          "type": "address"
        }
      ],
      "stateMutability": "view",
      "type": "function"
    },
    {
      "inputs": [
        {
          "internalType": "address",
          "name": "owner",
          "type": "address"
        },
        {
          "internalType": "address",
          "name": "operator",
          "type": "address"
        }
      ],
      "name": "isApprovedForAll",
      "outputs": [
        {
          "internalType": "bool",
          "name": "",
          "type": "bool"
        }
      ],
      "stateMutability": "view",
      "type": "function"
    },
    {
      "inputs": [],
      "name": "mint_price",
      "outputs": [
        {
          "internalType": "uint256",
          "name": "",
          "type": "uint256"
        }
      ],
      "stateMutability": "view",
      "type": "function"
    },
    {
      "inputs": [],
      "name": "name",
      "outputs": [
        {
          "internalType": "string",
          "name": "",
          "type": "string"
        }
      ],
      "stateMutability": "view",
      "type": "function"
    },
    {
      "inputs": [],
      "name": "owner",
      "outputs": [
        {
          "internalType": "address",
          "name": "",
          "type": "address"
        }
      ],
      "stateMutability": "view",
      "type": "function"
    },
    {
      "inputs": [
        {
          "internalType": "uint256",
          "name": "tokenId",
          "type": "uint256"
        }
      ],
      "name": "ownerOf",
      "outputs": [
        {
          "internalType": "address",
          "name": "",
          "type": "address"
        }
      ],
      "stateMutability": "view",
      "type": "function"
    },
    {
      "inputs": [],
      "name": "renounceOwnership",
      "outputs": [],
      "stateMutability": "nonpayable",
      "type": "function"
    },
    {
      "inputs": [],
      "name": "result",
      "outputs": [
        {
          "internalType": "uint256",
          "name": "",
          "type": "uint256"
        }
      ],
      "stateMutability": "view",
      "type": "function"
    },
    {
      "inputs": [
        {
          "internalType": "address",
          "name": "from",
          "type": "address"
        },
        {
          "internalType": "address",
          "name": "to",
          "type": "address"
        },
        {
          "internalType": "uint256",
          "name": "tokenId",
          "type": "uint256"
        }
      ],
      "name": "safeTransferFrom",
      "outputs": [],
      "stateMutability": "nonpayable",
      "type": "function"
    },
    {
      "inputs": [
        {
          "internalType": "address",
          "name": "from",
          "type": "address"
        },
        {
          "internalType": "address",
          "name": "to",
          "type": "address"
        },
        {
          "internalType": "uint256",
          "name": "tokenId",
          "type": "uint256"
        },
        {
          "internalType": "bytes",
          "name": "data",
          "type": "bytes"
        }
      ],
      "name": "safeTransferFrom",
      "outputs": [],
      "stateMutability": "nonpayable",
      "type": "function"
    },
    {
      "inputs": [
        {
          "internalType": "address",
          "name": "operator",
          "type": "address"
        },
        {
          "internalType": "bool",
          "name": "approved",
          "type": "bool"
        }
      ],
      "name": "setApprovalForAll",
      "outputs": [],
      "stateMutability": "nonpayable",
      "type": "function"
    },
    {
      "inputs": [
        {
          "internalType": "bytes4",
          "name": "interfaceId",
          "type": "bytes4"
        }
      ],
      "name": "supportsInterface",
      "outputs": [
        {
          "internalType": "bool",
          "name": "",
          "type": "bool"
        }
      ],
      "stateMutability": "view",
      "type": "function"
    },
    {
      "inputs": [],
      "name": "symbol",
      "outputs": [
        {
          "internalType": "string",
          "name": "",
          "type": "string"
        }
      ],
      "stateMutability": "view",
      "type": "function"
    },
    {
      "inputs": [
        {
          "internalType": "uint256",
          "name": "index",
          "type": "uint256"
        }
      ],
      "name": "tokenByIndex",
      "outputs": [
        {
          "internalType": "uint256",
          "name": "",
          "type": "uint256"
        }
      ],
      "stateMutability": "view",
      "type": "function"
    },
    {
      "inputs": [
        {
          "internalType": "uint256",
          "name": "",
          "type": "uint256"
        }
      ],
      "name": "tokenDatas",
      "outputs": [
        {
          "internalType": "uint256",
          "name": "Rank",
          "type": "uint256"
        },
        {
          "internalType": "uint256",
          "name": "Type",
          "type": "uint256"
        }
      ],
      "stateMutability": "view",
      "type": "function"
    },
    {
      "inputs": [
        {
          "internalType": "address",
          "name": "owner",
          "type": "address"
        },
        {
          "internalType": "uint256",
          "name": "index",
          "type": "uint256"
        }
      ],
      "name": "tokenOfOwnerByIndex",
      "outputs": [
        {
          "internalType": "uint256",
          "name": "",
          "type": "uint256"
        }
      ],
      "stateMutability": "view",
      "type": "function"
    },
    {
      "inputs": [],
      "name": "totalSupply",
      "outputs": [
        {
          "internalType": "uint256",
          "name": "",
          "type": "uint256"
        }
      ],
      "stateMutability": "view",
      "type": "function"
    },
    {
      "inputs": [
        {
          "internalType": "address",
          "name": "from",
          "type": "address"
        },
        {
          "internalType": "address",
          "name": "to",
          "type": "address"
        },
        {
          "internalType": "uint256",
          "name": "tokenId",
          "type": "uint256"
        }
      ],
      "name": "transferFrom",
      "outputs": [],
      "stateMutability": "nonpayable",
      "type": "function"
    },
    {
      "inputs": [
        {
          "internalType": "address",
          "name": "newOwner",
          "type": "address"
        }
      ],
      "name": "transferOwnership",
      "outputs": [],
      "stateMutability": "nonpayable",
      "type": "function"
    },
    {
      "inputs": [],
      "name": "getCreator",
      "outputs": [
        {
          "internalType": "address payable",
          "name": "",
          "type": "address"
        }
      ],
      "stateMutability": "view",
      "type": "function"
    },
    {
      "inputs": [],
      "name": "_minting",
      "outputs": [],
      "stateMutability": "payable",
      "type": "function"
    },
    {
      "inputs": [
        {
          "internalType": "uint256",
          "name": "_tokenId",
          "type": "uint256"
        }
      ],
      "name": "tokenURI",
      "outputs": [
        {
          "internalType": "string",
          "name": "",
          "type": "string"
        }
      ],
      "stateMutability": "view",
      "type": "function"
    }
  ],
  "bytecode": "0x60806040526001600b5567016345785d8a0000600c553480156200002257600080fd5b5060405162003f9838038062003f988339818101604052810190620000489190620002d7565b8181816000908051906020019062000062929190620001b5565b5080600190805190602001906200007b929190620001b5565b5050506200009e62000092620000e760201b60201c565b620000ef60201b60201c565b33600e60006101000a81548173ffffffffffffffffffffffffffffffffffffffff021916908373ffffffffffffffffffffffffffffffffffffffff1602179055505050620004ba565b600033905090565b6000600a60009054906101000a900473ffffffffffffffffffffffffffffffffffffffff16905081600a60006101000a81548173ffffffffffffffffffffffffffffffffffffffff021916908373ffffffffffffffffffffffffffffffffffffffff1602179055508173ffffffffffffffffffffffffffffffffffffffff168173ffffffffffffffffffffffffffffffffffffffff167f8be0079c531659141344cd1fd0a4f28419497f9722a3daafe3b4186f6b6457e060405160405180910390a35050565b828054620001c390620003df565b90600052602060002090601f016020900481019282620001e7576000855562000233565b82601f106200020257805160ff191683800117855562000233565b8280016001018555821562000233579182015b828111156200023257825182559160200191906001019062000215565b5b50905062000242919062000246565b5090565b5b808211156200026157600081600090555060010162000247565b5090565b60006200027c620002768462000373565b6200034a565b9050828152602081018484840111156200029557600080fd5b620002a2848285620003a9565b509392505050565b600082601f830112620002bc57600080fd5b8151620002ce84826020860162000265565b91505092915050565b60008060408385031215620002eb57600080fd5b600083015167ffffffffffffffff8111156200030657600080fd5b6200031485828601620002aa565b925050602083015167ffffffffffffffff8111156200033257600080fd5b6200034085828601620002aa565b9150509250929050565b60006200035662000369565b905062000364828262000415565b919050565b6000604051905090565b600067ffffffffffffffff8211156200039157620003906200047a565b5b6200039c82620004a9565b9050602081019050919050565b60005b83811015620003c9578082015181840152602081019050620003ac565b83811115620003d9576000848401525b50505050565b60006002820490506001821680620003f857607f821691505b602082108114156200040f576200040e6200044b565b5b50919050565b6200042082620004a9565b810181811067ffffffffffffffff821117156200044257620004416200047a565b5b80604052505050565b7f4e487b7100000000000000000000000000000000000000000000000000000000600052602260045260246000fd5b7f4e487b7100000000000000000000000000000000000000000000000000000000600052604160045260246000fd5b6000601f19601f8301169050919050565b613ace80620004ca6000396000f3fe6080604052600436106101665760003560e01c80636352211e116100d157806395d89b411161008a578063c87b56dd11610064578063c87b56dd14610532578063d0bbb0d71461056f578063e985e9c51461059a578063f2fde38b146105d757610166565b806395d89b41146104b5578063a22cb465146104e0578063b88d4fde1461050957610166565b80636352211e1461039057806365372147146103cd5780636fc37a75146103f857806370a0823114610436578063715018a6146104735780638da5cb5b1461048a57610166565b80631a4231a4116101235780631a4231a41461028f57806323b872dd146102ba578063255bc8d9146102e35780632f745c59146102ed57806342842e0e1461032a5780634f6ccce71461035357610166565b806301ffc9a71461016b57806306fdde03146101a8578063081812fc146101d3578063095ea7b3146102105780630ee2cb101461023957806318160ddd14610264575b600080fd5b34801561017757600080fd5b50610192600480360381019061018d9190612a27565b610600565b60405161019f9190612f3b565b60405180910390f35b3480156101b457600080fd5b506101bd61067a565b6040516101ca9190612f56565b60405180910390f35b3480156101df57600080fd5b506101fa60048036038101906101f59190612a79565b61070c565b6040516102079190612eb9565b60405180910390f35b34801561021c57600080fd5b50610237600480360381019061023291906129eb565b610752565b005b34801561024557600080fd5b5061024e61086a565b60405161025b9190612ed4565b60405180910390f35b34801561027057600080fd5b50610279610894565b6040516102869190613178565b60405180910390f35b34801561029b57600080fd5b506102a46108a1565b6040516102b19190613178565b60405180910390f35b3480156102c657600080fd5b506102e160048036038101906102dc91906128e5565b6108a7565b005b6102eb610907565b005b3480156102f957600080fd5b50610314600480360381019061030f91906129eb565b6109d7565b6040516103219190613178565b60405180910390f35b34801561033657600080fd5b50610351600480360381019061034c91906128e5565b610a7c565b005b34801561035f57600080fd5b5061037a60048036038101906103759190612a79565b610a9c565b6040516103879190613178565b60405180910390f35b34801561039c57600080fd5b506103b760048036038101906103b29190612a79565b610b33565b6040516103c49190612eb9565b60405180910390f35b3480156103d957600080fd5b506103e2610bba565b6040516103ef9190613178565b60405180910390f35b34801561040457600080fd5b5061041f600480360381019061041a9190612a79565b610bc0565b60405161042d929190613193565b60405180910390f35b34801561044257600080fd5b5061045d60048036038101906104589190612880565b610be4565b60405161046a9190613178565b60405180910390f35b34801561047f57600080fd5b50610488610c9c565b005b34801561049657600080fd5b5061049f610cb0565b6040516104ac9190612eb9565b60405180910390f35b3480156104c157600080fd5b506104ca610cda565b6040516104d79190612f56565b60405180910390f35b3480156104ec57600080fd5b50610507600480360381019061050291906129af565b610d6c565b005b34801561051557600080fd5b50610530600480360381019061052b9190612934565b610d82565b005b34801561053e57600080fd5b5061055960048036038101906105549190612a79565b610de4565b6040516105669190612f56565b60405180910390f35b34801561057b57600080fd5b50610584610e57565b6040516105919190613178565b60405180910390f35b3480156105a657600080fd5b506105c160048036038101906105bc91906128a9565b610e5c565b6040516105ce9190612f3b565b60405180910390f35b3480156105e357600080fd5b506105fe60048036038101906105f99190612880565b610ef0565b005b60007f780e9d63000000000000000000000000000000000000000000000000000000007bffffffffffffffffffffffffffffffffffffffffffffffffffffffff1916827bffffffffffffffffffffffffffffffffffffffffffffffffffffffff19161480610673575061067282610f74565b5b9050919050565b606060008054610689906133a7565b80601f01602080910402602001604051908101604052809291908181526020018280546106b5906133a7565b80156107025780601f106106d757610100808354040283529160200191610702565b820191906000526020600020905b8154815290600101906020018083116106e557829003601f168201915b5050505050905090565b600061071782611056565b6004600083815260200190815260200160002060009054906101000a900473ffffffffffffffffffffffffffffffffffffffff169050919050565b600061075d82610b33565b90508073ffffffffffffffffffffffffffffffffffffffff168373ffffffffffffffffffffffffffffffffffffffff1614156107ce576040517f08c379a00000000000000000000000000000000000000000000000000000000081526004016107c5906130f8565b60405180910390fd5b8073ffffffffffffffffffffffffffffffffffffffff166107ed6110a1565b73ffffffffffffffffffffffffffffffffffffffff16148061081c575061081b816108166110a1565b610e5c565b5b61085b576040517f08c379a000000000000000000000000000000000000000000000000000000000815260040161085290613118565b60405180910390fd5b61086583836110a9565b505050565b6000600e60009054906101000a900473ffffffffffffffffffffffffffffffffffffffff16905090565b6000600880549050905090565b600c5481565b6108b86108b26110a1565b82611162565b6108f7576040517f08c379a00000000000000000000000000000000000000000000000000000000081526004016108ee90612f78565b60405180910390fd5b6109028383836111f7565b505050565b600c5434101561091657600080fd5b61091e610894565b60641161092a57600080fd5b60006001610936610894565b6109409190613255565b9050600061094e33836114f1565b905080600d60008481526020019081526020016000206000820151816000015560208201518160010155905050610983610cb0565b73ffffffffffffffffffffffffffffffffffffffff166108fc349081150290604051600060405180830381858888f193505050501580156109c8573d6000803e3d6000fd5b506109d33383611789565b5050565b60006109e283610be4565b8210610a23576040517f08c379a0000000000000000000000000000000000000000000000000000000008152600401610a1a90612f98565b60405180910390fd5b600660008473ffffffffffffffffffffffffffffffffffffffff1673ffffffffffffffffffffffffffffffffffffffff168152602001908152602001600020600083815260200190815260200160002054905092915050565b610a9783838360405180602001604052806000815250610d82565b505050565b6000610aa6610894565b8210610ae7576040517f08c379a0000000000000000000000000000000000000000000000000000000008152600401610ade90613138565b60405180910390fd5b60088281548110610b21577f4e487b7100000000000000000000000000000000000000000000000000000000600052603260045260246000fd5b90600052602060002001549050919050565b600080610b3f836119a7565b9050600073ffffffffffffffffffffffffffffffffffffffff168173ffffffffffffffffffffffffffffffffffffffff161415610bb1576040517f08c379a0000000000000000000000000000000000000000000000000000000008152600401610ba8906130d8565b60405180910390fd5b80915050919050565b600b5481565b600d6020528060005260406000206000915090508060000154908060010154905082565b60008073ffffffffffffffffffffffffffffffffffffffff168273ffffffffffffffffffffffffffffffffffffffff161415610c55576040517f08c379a0000000000000000000000000000000000000000000000000000000008152600401610c4c90613078565b60405180910390fd5b600360008373ffffffffffffffffffffffffffffffffffffffff1673ffffffffffffffffffffffffffffffffffffffff168152602001908152602001600020549050919050565b610ca46119e4565b610cae6000611a62565b565b6000600a60009054906101000a900473ffffffffffffffffffffffffffffffffffffffff16905090565b606060018054610ce9906133a7565b80601f0160208091040260200160405190810160405280929190818152602001828054610d15906133a7565b8015610d625780601f10610d3757610100808354040283529160200191610d62565b820191906000526020600020905b815481529060010190602001808311610d4557829003601f168201915b5050505050905090565b610d7e610d776110a1565b8383611b28565b5050565b610d93610d8d6110a1565b83611162565b610dd2576040517f08c379a0000000000000000000000000000000000000000000000000000000008152600401610dc990612f78565b60405180910390fd5b610dde84848484611c95565b50505050565b60606000610e07600d600085815260200190815260200160002060000154611cf1565b90506000610e2a600d600086815260200190815260200160002060010154611cf1565b90508181604051602001610e3f929190612e74565b60405160208183030381529060405292505050919050565b606481565b6000600560008473ffffffffffffffffffffffffffffffffffffffff1673ffffffffffffffffffffffffffffffffffffffff16815260200190815260200160002060008373ffffffffffffffffffffffffffffffffffffffff1673ffffffffffffffffffffffffffffffffffffffff16815260200190815260200160002060009054906101000a900460ff16905092915050565b610ef86119e4565b600073ffffffffffffffffffffffffffffffffffffffff168173ffffffffffffffffffffffffffffffffffffffff161415610f68576040517f08c379a0000000000000000000000000000000000000000000000000000000008152600401610f5f90612fd8565b60405180910390fd5b610f7181611a62565b50565b60007f80ac58cd000000000000000000000000000000000000000000000000000000007bffffffffffffffffffffffffffffffffffffffffffffffffffffffff1916827bffffffffffffffffffffffffffffffffffffffffffffffffffffffff1916148061103f57507f5b5e139f000000000000000000000000000000000000000000000000000000007bffffffffffffffffffffffffffffffffffffffffffffffffffffffff1916827bffffffffffffffffffffffffffffffffffffffffffffffffffffffff1916145b8061104f575061104e82611e15565b5b9050919050565b61105f81611e7f565b61109e576040517f08c379a0000000000000000000000000000000000000000000000000000000008152600401611095906130d8565b60405180910390fd5b50565b600033905090565b816004600083815260200190815260200160002060006101000a81548173ffffffffffffffffffffffffffffffffffffffff021916908373ffffffffffffffffffffffffffffffffffffffff160217905550808273ffffffffffffffffffffffffffffffffffffffff1661111c83610b33565b73ffffffffffffffffffffffffffffffffffffffff167f8c5be1e5ebec7d5bd14f71427d1e84f3dd0314c0f7b2291e5b200ac8c7c3b92560405160405180910390a45050565b60008061116e83610b33565b90508073ffffffffffffffffffffffffffffffffffffffff168473ffffffffffffffffffffffffffffffffffffffff1614806111b057506111af8185610e5c565b5b806111ee57508373ffffffffffffffffffffffffffffffffffffffff166111d68461070c565b73ffffffffffffffffffffffffffffffffffffffff16145b91505092915050565b8273ffffffffffffffffffffffffffffffffffffffff1661121782610b33565b73ffffffffffffffffffffffffffffffffffffffff161461126d576040517f08c379a000000000000000000000000000000000000000000000000000000000815260040161126490612ff8565b60405180910390fd5b600073ffffffffffffffffffffffffffffffffffffffff168273ffffffffffffffffffffffffffffffffffffffff1614156112dd576040517f08c379a00000000000000000000000000000000000000000000000000000000081526004016112d490613038565b60405180910390fd5b6112ea8383836001611ec0565b8273ffffffffffffffffffffffffffffffffffffffff1661130a82610b33565b73ffffffffffffffffffffffffffffffffffffffff1614611360576040517f08c379a000000000000000000000000000000000000000000000000000000000815260040161135790612ff8565b60405180910390fd5b6004600082815260200190815260200160002060006101000a81549073ffffffffffffffffffffffffffffffffffffffff02191690556001600360008573ffffffffffffffffffffffffffffffffffffffff1673ffffffffffffffffffffffffffffffffffffffff168152602001908152602001600020600082825403925050819055506001600360008473ffffffffffffffffffffffffffffffffffffffff1673ffffffffffffffffffffffffffffffffffffffff16815260200190815260200160002060008282540192505081905550816002600083815260200190815260200160002060006101000a81548173ffffffffffffffffffffffffffffffffffffffff021916908373ffffffffffffffffffffffffffffffffffffffff160217905550808273ffffffffffffffffffffffffffffffffffffffff168473ffffffffffffffffffffffffffffffffffffffff167fddf252ad1be2c89b69c2b068fc378daa952ba7f163c4a11628f55a4df523b3ef60405160405180910390a46114ec8383836001612020565b505050565b6114f9612795565b600060648484604051602001611510929190612e48565b6040516020818303038152906040528051906020012060001c6115339190613438565b905061153d612795565b60058210156115d057600182141561156a57600481600001818152505060018160200181815250506115cb565b600282141561158e57600481600001818152505060028160200181815250506115ca565b60038214156115b257600481600001818152505060038160200181815250506115c9565b600481600001818152505060048160200181815250505b5b5b61177e565b600d8210156116635760078210156115fd576003816000018181525050600181602001818152505061165e565b6009821015611621576003816000018181525050600281602001818152505061165d565b600b821015611645576003816000018181525050600381602001818152505061165c565b600381600001818152505060048160200181815250505b5b5b61177d565b60258210156116f657601382101561169057600281600001818152505060018160200181815250506116f1565b60198210156116b457600281600001818152505060028160200181815250506116f0565b601f8210156116d857600281600001818152505060038160200181815250506116ef565b600281600001818152505060048160200181815250505b5b5b61177c565b603482101561171a576001816000018181525050600181602001818152505061177b565b604482101561173e576001816000018181525050600281602001818152505061177a565b60548210156117625760018160000181815250506003816020018181525050611779565b600181600001818152505060048160200181815250505b5b5b5b5b5b809250505092915050565b600073ffffffffffffffffffffffffffffffffffffffff168273ffffffffffffffffffffffffffffffffffffffff1614156117f9576040517f08c379a00000000000000000000000000000000000000000000000000000000081526004016117f090613098565b60405180910390fd5b61180281611e7f565b15611842576040517f08c379a000000000000000000000000000000000000000000000000000000000815260040161183990613018565b60405180910390fd5b611850600083836001611ec0565b61185981611e7f565b15611899576040517f08c379a000000000000000000000000000000000000000000000000000000000815260040161189090613018565b60405180910390fd5b6001600360008473ffffffffffffffffffffffffffffffffffffffff1673ffffffffffffffffffffffffffffffffffffffff16815260200190815260200160002060008282540192505081905550816002600083815260200190815260200160002060006101000a81548173ffffffffffffffffffffffffffffffffffffffff021916908373ffffffffffffffffffffffffffffffffffffffff160217905550808273ffffffffffffffffffffffffffffffffffffffff16600073ffffffffffffffffffffffffffffffffffffffff167fddf252ad1be2c89b69c2b068fc378daa952ba7f163c4a11628f55a4df523b3ef60405160405180910390a46119a3600083836001612020565b5050565b60006002600083815260200190815260200160002060009054906101000a900473ffffffffffffffffffffffffffffffffffffffff169050919050565b6119ec6110a1565b73ffffffffffffffffffffffffffffffffffffffff16611a0a610cb0565b73ffffffffffffffffffffffffffffffffffffffff1614611a60576040517f08c379a0000000000000000000000000000000000000000000000000000000008152600401611a57906130b8565b60405180910390fd5b565b6000600a60009054906101000a900473ffffffffffffffffffffffffffffffffffffffff16905081600a60006101000a81548173ffffffffffffffffffffffffffffffffffffffff021916908373ffffffffffffffffffffffffffffffffffffffff1602179055508173ffffffffffffffffffffffffffffffffffffffff168173ffffffffffffffffffffffffffffffffffffffff167f8be0079c531659141344cd1fd0a4f28419497f9722a3daafe3b4186f6b6457e060405160405180910390a35050565b8173ffffffffffffffffffffffffffffffffffffffff168373ffffffffffffffffffffffffffffffffffffffff161415611b97576040517f08c379a0000000000000000000000000000000000000000000000000000000008152600401611b8e90613058565b60405180910390fd5b80600560008573ffffffffffffffffffffffffffffffffffffffff1673ffffffffffffffffffffffffffffffffffffffff16815260200190815260200160002060008473ffffffffffffffffffffffffffffffffffffffff1673ffffffffffffffffffffffffffffffffffffffff16815260200190815260200160002060006101000a81548160ff0219169083151502179055508173ffffffffffffffffffffffffffffffffffffffff168373ffffffffffffffffffffffffffffffffffffffff167f17307eab39ab6107e8899845ad3d59bd9653f200f220920489ca2b5937696c3183604051611c889190612f3b565b60405180910390a3505050565b611ca08484846111f7565b611cac84848484612026565b611ceb576040517f08c379a0000000000000000000000000000000000000000000000000000000008152600401611ce290612fb8565b60405180910390fd5b50505050565b606060006001611d00846121bd565b01905060008167ffffffffffffffff811115611d45577f4e487b7100000000000000000000000000000000000000000000000000000000600052604160045260246000fd5b6040519080825280601f01601f191660200182016040528015611d775781602001600182028036833780820191505090505b509050600082602001820190505b600115611e0a578080600190039150507f3031323334353637383961626364656600000000000000000000000000000000600a86061a8153600a8581611df4577f4e487b7100000000000000000000000000000000000000000000000000000000600052601260045260246000fd5b0494506000851415611e0557611e0a565b611d85565b819350505050919050565b60007f01ffc9a7000000000000000000000000000000000000000000000000000000007bffffffffffffffffffffffffffffffffffffffffffffffffffffffff1916827bffffffffffffffffffffffffffffffffffffffffffffffffffffffff1916149050919050565b60008073ffffffffffffffffffffffffffffffffffffffff16611ea1836119a7565b73ffffffffffffffffffffffffffffffffffffffff1614159050919050565b611ecc848484846123f4565b6001811115611f10576040517f08c379a0000000000000000000000000000000000000000000000000000000008152600401611f0790613158565b60405180910390fd5b6000829050600073ffffffffffffffffffffffffffffffffffffffff168573ffffffffffffffffffffffffffffffffffffffff161415611f5857611f53816123fa565b611f97565b8373ffffffffffffffffffffffffffffffffffffffff168573ffffffffffffffffffffffffffffffffffffffff1614611f9657611f958582612443565b5b5b600073ffffffffffffffffffffffffffffffffffffffff168473ffffffffffffffffffffffffffffffffffffffff161415611fda57611fd5816125b0565b612019565b8473ffffffffffffffffffffffffffffffffffffffff168473ffffffffffffffffffffffffffffffffffffffff16146120185761201784826126f3565b5b5b5050505050565b50505050565b60006120478473ffffffffffffffffffffffffffffffffffffffff16612772565b156121b0578373ffffffffffffffffffffffffffffffffffffffff1663150b7a026120706110a1565b8786866040518563ffffffff1660e01b81526004016120929493929190612eef565b602060405180830381600087803b1580156120ac57600080fd5b505af19250505080156120dd57506040513d601f19601f820116820180604052508101906120da9190612a50565b60015b612160573d806000811461210d576040519150601f19603f3d011682016040523d82523d6000602084013e612112565b606091505b50600081511415612158576040517f08c379a000000000000000000000000000000000000000000000000000000000815260040161214f90612fb8565b60405180910390fd5b805181602001fd5b63150b7a0260e01b7bffffffffffffffffffffffffffffffffffffffffffffffffffffffff1916817bffffffffffffffffffffffffffffffffffffffffffffffffffffffff1916149150506121b5565b600190505b949350505050565b600080600090507a184f03e93ff9f4daa797ed6e38ed64bf6a1f0100000000000000008310612241577a184f03e93ff9f4daa797ed6e38ed64bf6a1f0100000000000000008381612237577f4e487b7100000000000000000000000000000000000000000000000000000000600052601260045260246000fd5b0492506040810190505b6d04ee2d6d415b85acef810000000083106122a4576d04ee2d6d415b85acef8100000000838161229a577f4e487b7100000000000000000000000000000000000000000000000000000000600052601260045260246000fd5b0492506020810190505b662386f26fc1000083106122f957662386f26fc1000083816122ef577f4e487b7100000000000000000000000000000000000000000000000000000000600052601260045260246000fd5b0492506010810190505b6305f5e1008310612348576305f5e100838161233e577f4e487b7100000000000000000000000000000000000000000000000000000000600052601260045260246000fd5b0492506008810190505b6127108310612393576127108381612389577f4e487b7100000000000000000000000000000000000000000000000000000000600052601260045260246000fd5b0492506004810190505b606483106123dc57606483816123d2577f4e487b7100000000000000000000000000000000000000000000000000000000600052601260045260246000fd5b0492506002810190505b600a83106123eb576001810190505b80915050919050565b50505050565b6008805490506009600083815260200190815260200160002081905550600881908060018154018082558091505060019003906000526020600020016000909190919091505550565b6000600161245084610be4565b61245a91906132ab565b905060006007600084815260200190815260200160002054905081811461253f576000600660008673ffffffffffffffffffffffffffffffffffffffff1673ffffffffffffffffffffffffffffffffffffffff168152602001908152602001600020600084815260200190815260200160002054905080600660008773ffffffffffffffffffffffffffffffffffffffff1673ffffffffffffffffffffffffffffffffffffffff168152602001908152602001600020600084815260200190815260200160002081905550816007600083815260200190815260200160002081905550505b6007600084815260200190815260200160002060009055600660008573ffffffffffffffffffffffffffffffffffffffff1673ffffffffffffffffffffffffffffffffffffffff16815260200190815260200160002060008381526020019081526020016000206000905550505050565b600060016008805490506125c491906132ab565b905060006009600084815260200190815260200160002054905060006008838154811061261a577f4e487b7100000000000000000000000000000000000000000000000000000000600052603260045260246000fd5b906000526020600020015490508060088381548110612662577f4e487b7100000000000000000000000000000000000000000000000000000000600052603260045260246000fd5b9060005260206000200181905550816009600083815260200190815260200160002081905550600960008581526020019081526020016000206000905560088054806126d7577f4e487b7100000000000000000000000000000000000000000000000000000000600052603160045260246000fd5b6001900381819060005260206000200160009055905550505050565b60006126fe83610be4565b905081600660008573ffffffffffffffffffffffffffffffffffffffff1673ffffffffffffffffffffffffffffffffffffffff168152602001908152602001600020600083815260200190815260200160002081905550806007600084815260200190815260200160002081905550505050565b6000808273ffffffffffffffffffffffffffffffffffffffff163b119050919050565b604051806040016040528060008152602001600081525090565b60006127c26127bd846131e1565b6131bc565b9050828152602081018484840111156127da57600080fd5b6127e5848285613365565b509392505050565b6000813590506127fc81613a3c565b92915050565b60008135905061281181613a53565b92915050565b60008135905061282681613a6a565b92915050565b60008151905061283b81613a6a565b92915050565b600082601f83011261285257600080fd5b81356128628482602086016127af565b91505092915050565b60008135905061287a81613a81565b92915050565b60006020828403121561289257600080fd5b60006128a0848285016127ed565b91505092915050565b600080604083850312156128bc57600080fd5b60006128ca858286016127ed565b92505060206128db858286016127ed565b9150509250929050565b6000806000606084860312156128fa57600080fd5b6000612908868287016127ed565b9350506020612919868287016127ed565b925050604061292a8682870161286b565b9150509250925092565b6000806000806080858703121561294a57600080fd5b6000612958878288016127ed565b9450506020612969878288016127ed565b935050604061297a8782880161286b565b925050606085013567ffffffffffffffff81111561299757600080fd5b6129a387828801612841565b91505092959194509250565b600080604083850312156129c257600080fd5b60006129d0858286016127ed565b92505060206129e185828601612802565b9150509250929050565b600080604083850312156129fe57600080fd5b6000612a0c858286016127ed565b9250506020612a1d8582860161286b565b9150509250929050565b600060208284031215612a3957600080fd5b6000612a4784828501612817565b91505092915050565b600060208284031215612a6257600080fd5b6000612a708482850161282c565b91505092915050565b600060208284031215612a8b57600080fd5b6000612a998482850161286b565b91505092915050565b612aab816132f1565b82525050565b612aba816132df565b82525050565b612ad1612acc826132df565b61340a565b82525050565b612ae081613303565b82525050565b6000612af182613212565b612afb8185613228565b9350612b0b818560208601613374565b612b1481613525565b840191505092915050565b6000612b2a8261321d565b612b348185613239565b9350612b44818560208601613374565b612b4d81613525565b840191505092915050565b6000612b638261321d565b612b6d818561324a565b9350612b7d818560208601613374565b80840191505092915050565b6000612b96602d83613239565b9150612ba182613543565b604082019050919050565b6000612bb9602b83613239565b9150612bc482613592565b604082019050919050565b6000612bdc603283613239565b9150612be7826135e1565b604082019050919050565b6000612bff602683613239565b9150612c0a82613630565b604082019050919050565b6000612c22602583613239565b9150612c2d8261367f565b604082019050919050565b6000612c45601c83613239565b9150612c50826136ce565b602082019050919050565b6000612c68602483613239565b9150612c73826136f7565b604082019050919050565b6000612c8b601983613239565b9150612c9682613746565b602082019050919050565b6000612cae602983613239565b9150612cb98261376f565b604082019050919050565b6000612cd1602083613239565b9150612cdc826137be565b602082019050919050565b6000612cf460058361324a565b9150612cff826137e7565b600582019050919050565b6000612d17602083613239565b9150612d2282613810565b602082019050919050565b6000612d3a60518361324a565b9150612d4582613839565b605182019050919050565b6000612d5d601883613239565b9150612d68826138ae565b602082019050919050565b6000612d80602183613239565b9150612d8b826138d7565b604082019050919050565b6000612da3603d83613239565b9150612dae82613926565b604082019050919050565b6000612dc6602c83613239565b9150612dd182613975565b604082019050919050565b6000612de9603583613239565b9150612df4826139c4565b604082019050919050565b6000612e0c60018361324a565b9150612e1782613a13565b600182019050919050565b612e2b8161335b565b82525050565b612e42612e3d8261335b565b61342e565b82525050565b6000612e548285612ac0565b601482019150612e648284612e31565b6020820191508190509392505050565b6000612e7f82612d2d565b9150612e8b8285612b58565b9150612e9682612dff565b9150612ea28284612b58565b9150612ead82612ce7565b91508190509392505050565b6000602082019050612ece6000830184612ab1565b92915050565b6000602082019050612ee96000830184612aa2565b92915050565b6000608082019050612f046000830187612ab1565b612f116020830186612ab1565b612f1e6040830185612e22565b8181036060830152612f308184612ae6565b905095945050505050565b6000602082019050612f506000830184612ad7565b92915050565b60006020820190508181036000830152612f708184612b1f565b905092915050565b60006020820190508181036000830152612f9181612b89565b9050919050565b60006020820190508181036000830152612fb181612bac565b9050919050565b60006020820190508181036000830152612fd181612bcf565b9050919050565b60006020820190508181036000830152612ff181612bf2565b9050919050565b6000602082019050818103600083015261301181612c15565b9050919050565b6000602082019050818103600083015261303181612c38565b9050919050565b6000602082019050818103600083015261305181612c5b565b9050919050565b6000602082019050818103600083015261307181612c7e565b9050919050565b6000602082019050818103600083015261309181612ca1565b9050919050565b600060208201905081810360008301526130b181612cc4565b9050919050565b600060208201905081810360008301526130d181612d0a565b9050919050565b600060208201905081810360008301526130f181612d50565b9050919050565b6000602082019050818103600083015261311181612d73565b9050919050565b6000602082019050818103600083015261313181612d96565b9050919050565b6000602082019050818103600083015261315181612db9565b9050919050565b6000602082019050818103600083015261317181612ddc565b9050919050565b600060208201905061318d6000830184612e22565b92915050565b60006040820190506131a86000830185612e22565b6131b56020830184612e22565b9392505050565b60006131c66131d7565b90506131d282826133d9565b919050565b6000604051905090565b600067ffffffffffffffff8211156131fc576131fb6134f6565b5b61320582613525565b9050602081019050919050565b600081519050919050565b600081519050919050565b600082825260208201905092915050565b600082825260208201905092915050565b600081905092915050565b60006132608261335b565b915061326b8361335b565b9250827fffffffffffffffffffffffffffffffffffffffffffffffffffffffffffffffff038211156132a05761329f613469565b5b828201905092915050565b60006132b68261335b565b91506132c18361335b565b9250828210156132d4576132d3613469565b5b828203905092915050565b60006132ea8261333b565b9050919050565b60006132fc8261333b565b9050919050565b60008115159050919050565b60007fffffffff0000000000000000000000000000000000000000000000000000000082169050919050565b600073ffffffffffffffffffffffffffffffffffffffff82169050919050565b6000819050919050565b82818337600083830152505050565b60005b83811015613392578082015181840152602081019050613377565b838111156133a1576000848401525b50505050565b600060028204905060018216806133bf57607f821691505b602082108114156133d3576133d26134c7565b5b50919050565b6133e282613525565b810181811067ffffffffffffffff82111715613401576134006134f6565b5b80604052505050565b60006134158261341c565b9050919050565b600061342782613536565b9050919050565b6000819050919050565b60006134438261335b565b915061344e8361335b565b92508261345e5761345d613498565b5b828206905092915050565b7f4e487b7100000000000000000000000000000000000000000000000000000000600052601160045260246000fd5b7f4e487b7100000000000000000000000000000000000000000000000000000000600052601260045260246000fd5b7f4e487b7100000000000000000000000000000000000000000000000000000000600052602260045260246000fd5b7f4e487b7100000000000000000000000000000000000000000000000000000000600052604160045260246000fd5b6000601f19601f8301169050919050565b60008160601b9050919050565b7f4552433732313a2063616c6c6572206973206e6f7420746f6b656e206f776e6560008201527f72206f7220617070726f76656400000000000000000000000000000000000000602082015250565b7f455243373231456e756d657261626c653a206f776e657220696e646578206f7560008201527f74206f6620626f756e6473000000000000000000000000000000000000000000602082015250565b7f4552433732313a207472616e7366657220746f206e6f6e20455243373231526560008201527f63656976657220696d706c656d656e7465720000000000000000000000000000602082015250565b7f4f776e61626c653a206e6577206f776e657220697320746865207a65726f206160008201527f6464726573730000000000000000000000000000000000000000000000000000602082015250565b7f4552433732313a207472616e736665722066726f6d20696e636f72726563742060008201527f6f776e6572000000000000000000000000000000000000000000000000000000602082015250565b7f4552433732313a20746f6b656e20616c7265616479206d696e74656400000000600082015250565b7f4552433732313a207472616e7366657220746f20746865207a65726f2061646460008201527f7265737300000000000000000000000000000000000000000000000000000000602082015250565b7f4552433732313a20617070726f766520746f2063616c6c657200000000000000600082015250565b7f4552433732313a2061646472657373207a65726f206973206e6f74206120766160008201527f6c6964206f776e65720000000000000000000000000000000000000000000000602082015250565b7f4552433732313a206d696e7420746f20746865207a65726f2061646472657373600082015250565b7f2e6a736f6e000000000000000000000000000000000000000000000000000000600082015250565b7f4f776e61626c653a2063616c6c6572206973206e6f7420746865206f776e6572600082015250565b7f68747470733a2f2f676174657761792e70696e6174612e636c6f75642f69706660008201527f732f516d50776a6e7657594e34657441356557347941625743547932756b454360208201527f314a6a35343137564c477948355870552f000000000000000000000000000000604082015250565b7f4552433732313a20696e76616c696420746f6b656e2049440000000000000000600082015250565b7f4552433732313a20617070726f76616c20746f2063757272656e74206f776e6560008201527f7200000000000000000000000000000000000000000000000000000000000000602082015250565b7f4552433732313a20617070726f76652063616c6c6572206973206e6f7420746f60008201527f6b656e206f776e6572206f7220617070726f76656420666f7220616c6c000000602082015250565b7f455243373231456e756d657261626c653a20676c6f62616c20696e646578206f60008201527f7574206f6620626f756e64730000000000000000000000000000000000000000602082015250565b7f455243373231456e756d657261626c653a20636f6e736563757469766520747260008201527f616e7366657273206e6f7420737570706f727465640000000000000000000000602082015250565b7f2f00000000000000000000000000000000000000000000000000000000000000600082015250565b613a45816132df565b8114613a5057600080fd5b50565b613a5c81613303565b8114613a6757600080fd5b50565b613a738161330f565b8114613a7e57600080fd5b50565b613a8a8161335b565b8114613a9557600080fd5b5056fea2646970667358221220bef87402469e4d825e65c9c4dc018aac2971d4efaf6c2ed88f15b34c4457f16564736f6c63430008010033",
  "immutableReferences": {},
  "source": "// SPDX-License-Identifier: MIT\npragma solidity ^0.8.0;\n\nimport \"../node_modules/@openzeppelin/contracts/token/ERC721/extensions/ERC721Enumerable.sol\";\nimport \"../node_modules/@openzeppelin/contracts/access/Ownable.sol\";\nimport \"../node_modules/@openzeppelin/contracts/utils/Strings.sol\";\n\ncontract MyNFT is ERC721Enumerable, Ownable {\n    uint256 public result = 1;\n    uint256 public mint_price = 0.1 ether;\n    uint256 constant public MAX_TOKEN_COUNT = 100;\n\n    constructor (string memory _name, string memory _symbol) ERC721(_name, _symbol) {\n        contractCreator = msg.sender;\n    }\n\n    struct TokenData {\n        uint Rank;\n        uint256 Type;\n    }\n\n    mapping(uint256=> TokenData) public tokenDatas;\n    address private contractCreator;\n\n    function getCreator() public view returns (address payable) {\n        return payable(contractCreator);\n    }\n\n\n    function _minting() public payable {\n        require(msg.value >= mint_price);\n        require(MAX_TOKEN_COUNT > ERC721Enumerable.totalSupply());\n\n        uint256 tokenId = ERC721Enumerable.totalSupply() +1;\n\n        TokenData memory data = getRandomNum(msg.sender, tokenId);\n        tokenDatas[tokenId] = data;\n\n        payable(Ownable.owner()).transfer(msg.value);\n        _mint(msg.sender, tokenId); \n    }\n\n    function tokenURI(uint _tokenId) public view override returns(string memory) {\n\n        string memory Rank = Strings.toString(tokenDatas[_tokenId].Rank);\n        string memory Type = Strings.toString(tokenDatas[_tokenId].Type);\n\n        return string(abi.encodePacked(\"https://gateway.pinata.cloud/ipfs/QmPwjnvWYN4etA5eW4yAbWCTy2ukEC1Jj5417VLGyH5XpU/\",\n            Rank, \"/\", Type, \".json\"\n        ));\n    }\n\n    function getRandomNum(address _msgSender, uint256 _TokenId) private returns(TokenData memory) {\n        \n        uint256 randomNum = uint256(keccak256(abi.encodePacked(_msgSender, _TokenId)))%100;\n        TokenData memory data;\n\n        if (randomNum < 5) {\n            if (randomNum == 1) {\n                data.Rank = 4;\n                data.Type = 1;\n            } else if (randomNum == 2) {\n                data.Rank = 4;\n                data.Type = 2;\n            } else if (randomNum == 3) {\n                data.Rank = 4;\n                data.Type = 3;\n            } else {\n                data.Rank = 4;\n                data.Type = 4;\n            }\n        } else if (randomNum < 13) {\n            if (randomNum < 7) {\n                data.Rank = 3;\n                data.Type = 1;\n            } else if (randomNum < 9) {\n                data.Rank = 3;\n                data.Type = 2;\n            } else if (randomNum < 11) {\n                data.Rank = 3;\n                data.Type = 3;\n            } else {\n                data.Rank = 3;\n                data.Type = 4;\n            }\n        } else if (randomNum < 37) {\n            if (randomNum < 19) {\n                data.Rank = 2;\n                data.Type = 1;\n            } else if (randomNum < 25) {\n                data.Rank = 2;\n                data.Type = 2;\n            } else if (randomNum < 31) {\n                data.Rank = 2;\n                data.Type = 3;\n            } else {\n                data.Rank = 2;\n                data.Type = 4;\n            }\n        } else {\n            if (randomNum < 52) {\n                data.Rank = 1;\n                data.Type = 1;\n            } else if (randomNum < 68) {\n                data.Rank = 1;\n                data.Type = 2;\n            } else if (randomNum < 84) {\n                data.Rank = 1;\n                data.Type = 3;\n            } else {\n                data.Rank = 1;\n                data.Type = 4;\n            }\n        }\n\n        return data;\n    }\n}",
  "sourcePath": "/Users/kimjh/Documents/workspace/ZDB/NFTproject/nft/contracts/LTToken.sol",
  "compiler": {
    "name": "solc",
    "version": "0.8.1+commit.df193b15.Emscripten.clang"
  },
  "schemaVersion": "3.4.14",
  "updatedAt": "2023-06-12T20:17:40.760Z",
  "devdoc": {
    "kind": "dev",
    "methods": {
      "approve(address,uint256)": {
        "details": "See {IERC721-approve}."
      },
      "balanceOf(address)": {
        "details": "See {IERC721-balanceOf}."
      },
      "getApproved(uint256)": {
        "details": "See {IERC721-getApproved}."
      },
      "isApprovedForAll(address,address)": {
        "details": "See {IERC721-isApprovedForAll}."
      },
      "name()": {
        "details": "See {IERC721Metadata-name}."
      },
      "owner()": {
        "details": "Returns the address of the current owner."
      },
      "ownerOf(uint256)": {
        "details": "See {IERC721-ownerOf}."
      },
      "renounceOwnership()": {
        "details": "Leaves the contract without owner. It will not be possible to call `onlyOwner` functions. Can only be called by the current owner. NOTE: Renouncing ownership will leave the contract without an owner, thereby disabling any functionality that is only available to the owner."
      },
      "safeTransferFrom(address,address,uint256)": {
        "details": "See {IERC721-safeTransferFrom}."
      },
      "safeTransferFrom(address,address,uint256,bytes)": {
        "details": "See {IERC721-safeTransferFrom}."
      },
      "setApprovalForAll(address,bool)": {
        "details": "See {IERC721-setApprovalForAll}."
      },
      "supportsInterface(bytes4)": {
        "details": "See {IERC165-supportsInterface}."
      },
      "symbol()": {
        "details": "See {IERC721Metadata-symbol}."
      },
      "tokenByIndex(uint256)": {
        "details": "See {IERC721Enumerable-tokenByIndex}."
      },
      "tokenOfOwnerByIndex(address,uint256)": {
        "details": "See {IERC721Enumerable-tokenOfOwnerByIndex}."
      },
      "totalSupply()": {
        "details": "See {IERC721Enumerable-totalSupply}."
      },
      "transferFrom(address,address,uint256)": {
        "details": "See {IERC721-transferFrom}."
      },
      "transferOwnership(address)": {
        "details": "Transfers ownership of the contract to a new account (`newOwner`). Can only be called by the current owner."
      }
    },
    "version": 1
  },
  "userdoc": {
    "kind": "user",
    "methods": {},
    "version": 1
  }
}